:020000040800F2
:10000000A00A00202902000823210008F51E00088C
:10001000212100081F04000821240008000000001E
:100020000000000000000000000000002721000880
:10003000990500080000000025210008292100087A
:10004000430200084302000843020008430200087C
:10005000430200084302000843020008430200086C
:10006000430200084302000843020008430200085C
:10007000D504000843020008E10400084302000818
:100080004302000843020008430200086904000814
:100090005D04000843020008430200084302000810
:1000A000430200084302000843020008430200081C
:1000B000430200084302000843020008430200080C
:1000C00043020008430200084302000843020008FC
:1000D00043020008FD230008430200080924000829
:1000E00043020008430200084302000843020008DC
:1000F00043020008430200084302000843020008CC
:1001000043020008430200084302000843020008BB
:1001100043020008430200084302000843020008AB
:1001200043020008ED040008F90400084302000837
:10013000430200084302000843020008C904000803
:10014000B1040008BD04000843020008430200088F
:1001500043020008050500081105000815240008E1
:10016000430200084302000843020008430200085B
:100170004302000843020008430200080000000098
:10018000430200084302000800F002F800F03CF8C7
:100190000AA090E8000C82448344AAF10107DA45E2
:1001A00001D100F031F8AFF2090EBAE80F0013F0F8
:1001B000010F18BFFB1A43F0010318471025000078
:1001C00030250000103A24BF78C878C1FAD8520709
:1001D00024BF30C830C144BF04680C6070470000C1
:1001E0000023002400250026103A28BF78C1FBD840
:1001F000520728BF30C148BF0B6070471FB502F0DF
:100200004FFA1FBD10B510BD00F0CFF81146FFF733
:10021000F5FF02F016F900F0EDF803B4FFF7F2FF76
:1002200003BC00F0F5F80000094880470948004782
:10023000FEE7FEE7FEE7FEE7FEE7FEE7FEE7FEE796
:10024000FEE7FEE704480549054A064B70470000F3
:10025000C121000889010008A0040020A00A002094
:10026000A0060020A006002053EA020C00F06980DE
:100270002DE9F04B4FF00006002B1FBFB3FA83F5BA
:1002800003FA05F424FA05F65E4012BF1643B2FAEB
:1002900082F502FA05F4C5F120051EBF22FA05FC1D
:1002A00044EA0C04203556EA044C4FEA144418BFC3
:1002B000641C4FF000084FF00009904271EB030CF2
:1002C00039D3002919BFB1FA81F701FA07F6B0FA5C
:1002D00080F700FA07F6C7F120071EBF20FA07FCD7
:1002E00046EA0C062037B6FBF4FCA7EB0507103FE7
:1002F00007F01F0BCBF120060CFA0BFB2CFA06F6CD
:1003000044BFB3460026202FA4BF5E464FF0000B2B
:100310005BEA060C08BF4FF0010B19EB0B09ABFBB6
:10032000027C48EB0608C01B06FB02CC0BFB03CC8F
:1003300071EB0C01C1E70B46024641464846BDE859
:10034000F08B13B54FF000004FF00001AFF30080C9
:10035000BDE81C4070474FF0000200B513469446BC
:100360009646203922BFA0E80C50A0E80C50B1F10D
:100370002001BFF4F7AF090728BFA0E80C5048BF21
:100380000CC05DF804EB890028BF40F8042B08BFBF
:10039000704748BF20F8022B11F0804F18BF00F8BB
:1003A000012B7047704770477047754600F02CF876
:1003B000AE4605006946534620F00700854618B052
:1003C00020B5FFF73FFFBDE820404FF000064FF09B
:1003D00000074FF000084FF0000B21F00701AC467A
:1003E000ACE8C009ACE8C009ACE8C009ACE8C00999
:1003F0008D46704710B50446AFF300802046BDE837
:100400001040FFF70ABF000000487047400400207A
:1004100001491820ABBEFEE7260002007047FEE748
:1004200000B58BB000200121CDE9060105900090B8
:1004300001900290039004900E20CDE908106946C7
:10044000054800F023F90221034800F0A8F802480B
:1004500000F064FC0BB000BDE4000020014800F097
:1004600010BA0000E4000020014800F00ABA0000C1
:10047000E400002000B58BB001220E21002007927D
:10048000CDE9051003900490CDE90821009001907A
:1004900002906946054800F0F9F80221034800F08F
:1004A0007EF8024800F03AFC0BB000BD0C010020C1
:1004B000014800F0E6B900000C010020014800F0FE
:1004C000E0B900000C010020014800F0DAB900009A
:1004D0000C010020014800F0AFBC0000C002002069
:1004E000014800F0A9BC000020030020014800F0F2
:1004F000A3BC000080030020014800F09DBC000068
:1005000000020020014800F097BC0000E00300203A
:10051000014800F091BC000060020020016818232F
:10052000CAB2103AB2FBF3F2054B6FF30901032A8A
:100530009B5CC36500D9091D8165084670470000B2
:10054000AA26000810B5014600208B698A6A4FF080
:10055000C07453B1B3F5005F15D072B1012A0CD04D
:10056000022A0AD0032A09D104E01AB1012A06D0CE
:10057000022A03D1C96AC90100D5012010BDC96A88
:10058000A142FAD010BD002AF7D0012AF2D0022AE7
:10059000F3D0032AF3D010BD704772B6FEE790F88F
:1005A0002020012A07D0022A05D0416A41F4802187
:1005B000416201207047006842690A43426100209D
:1005C0007047F0B590F820500468A468012D05D05C
:1005D000022D03D0416A41F4802153E014F0406FB2
:1005E00001D1E5004BD5C4F30164022C03D9416A63
:1005F00041F4000146E00125A5401D608D684FF4DF
:10060000C0739DB1CE6835434E6845EAC60506689D
:1006100003EB0417F5514FF4C275076805EB041599
:100620000E697E51097D012905D009E00E88CD684B
:1006300045EA4655EBE701684E5946F480764E513F
:100640001179D2F805504FF4C67641EA05250168C4
:1006500006EB04168D511178D2F801204FF4C475C1
:1006600041EA0221026805EB04155151006803EBD1
:100670000411425842F0010242500020F0BD416A8C
:1006800041F4001141620120F0BD000010B590F866
:100690002020012A07D0022A05D0416A41F4802196
:1006A0004162012010BD3B48D0F8002242F0010217
:1006B000C0F80022D0F8002222F47C52C0F80022B8
:1006C000D0F800224B6A42EA0322C0F800220A7DD9
:1006D00002F01F0301229A40D0F81C329343C0F865
:1006E0001C32CB69B3B9D0F80C329343C0F80C324A
:1006F0008C894B6864F31F434C6900EBC404C4F855
:1007000040320C890B6864F31F434C6900EBC4044E
:10071000C4F84432CB69012B16D1D0F80C32134304
:10072000C0F80C320C884B6864F31F434C6900EB33
:10073000C404C4F840320C89CB6864F31F434C698D
:1007400000EBC404C4F844328B69002BD0F80432A7
:100750000ED01343C0F804320B69002BD0F81432CA
:1007600008D01343C0F81432096A012904D008E004
:100770009343EFE79343F5E7D0F81C121143C0F819
:100780001C12D0F8001221F00101C0F80012002064
:1007900010BD000000640040704730B590F8204064
:1007A000012C05D0022C03D0416A41F480215DE088
:1007B0000468002955D02469A40754D04FF4D87494
:1007C000056804EB01142D5915F0040595600568C2
:1007D0002D594ED0ED08556005682C5904F00204DF
:1007E000D4604FF4DA74056804EB01142D5905F058
:1007F0000F05156105682D59C5F307259561056835
:100800002C59240C54614FF4DC72046802EB011281
:10081000A4581C700468A458240A5C700468A45886
:10082000240C9C700468A258120EDA704FF4DE7229
:10083000046802EB0112A4581C710468A458240A2D
:100840005C710468A458240C9C710468A258120EB0
:10085000DA71006881B1016941F020010161002075
:1008600030BDE468A8E7416A41F40011416201200B
:1008700030BD6D0D1560AFE7C16841F02001C1606A
:10088000EDE72DE9F05F0546006800244669D0F8E1
:1008900004908768D0F80CB0D0F810A0D0F8188079
:1008A000F10748D0F90714D001218160B80703D5BA
:1008B000284600F060FA0CE0780702D54FF4006497
:1008C00007E0380702D54FF4805402E0284600F0D4
:1008D00051FAF80516D529684FF480708860B8057C
:1008E00003D5284600F049FA0CE0780502D544F417
:1008F000005407E0380502D544F4804402E028465D
:1009000000F03AFAF80316D529684FF48030886071
:10091000B80303D5284600F032FA0CE0780302D57C
:1009200044F4004407E0380302D544F4803402E084
:10093000284600F023FA300707D55FEACB6004D5DC
:100940002968102044F40074C86070074FF008074D
:1009500007D55FEA0B7004D52868C760284600F009
:10096000B1F9B00706D52868C068800702D02846CC
:1009700000F0AAF9700607D55FEACA6004D52968B5
:10098000102044F480640861B00607D55FEA0A705D
:1009900004D528680761284600F0BCF9F00606D5A2
:1009A00028680069800702D0284600F0B4F9B00337
:1009B00008D55FEAC96005D5296810204860284637
:1009C00000F0AAF9F00307D55FEA097004D528689A
:1009D0004760284600F0D4F9300446D55FEA4970F4
:1009E00040D5F00504D55FEAC87001D044F0010499
:1009F000B00504D55FEA887001D544F002047005A3
:100A000004D55FEA487001D544F00404300529D5C7
:100A100018F0700F26D008F07000402815D006DCC2
:100A2000102809D020280AD0302816D10AE05028F2
:100A30000ED0602811D10EE044F008040DE044F01F
:100A400010040AE044F0200407E044F0400404E00D
:100A500044F0800401E044F480742868816921F046
:100A600070018161296804204860002C05D0686A03
:100A7000204368622846FFF78FFEBDE8F09F70B5FF
:100A8000040003D094F8200010B104E0012070BDF0
:100A9000204600F081F82068016841F00101016002
:100AA00000F0FCFB0546052604E000F0F7FB401BC8
:100AB0000A2811D820684068C007F6D0206801686D
:100AC00021F00201016000F0E9FB05460BE000F0B7
:100AD000E5FB401B0A2806D9606A40F400306062DA
:100AE00084F82060D2E7206840688007EFD4207E39
:100AF0000128206801683DD021F080010160607EFE
:100B000001282068016838D021F040010160A07EF2
:100B100001282068016833D021F020010160E07EC7
:100B20000128206801682ED041F010010160207F6B
:100B300001282068016829D021F008010160607F48
:100B400001282068016824D021F004010160D4E963
:100B500002010843D4E90412114308436168491EA5
:100B600008432168C86100206062012084F82000E9
:100B7000002070BD41F08001C0E741F04001C5E7B1
:100B800041F02001CAE721F01001CFE741F0080150
:100B9000D4E741F00401D9E7F0B587B00446142149
:100BA0006846FFF7D8FB424B4248DFF800E119687E
:100BB000D4F800C03F4A032502260927103000243C
:100BC000491CF4452AD11960012907D1016841F077
:100BD00000710160006800F000700590106840F03E
:100BE000080010601068CDE9005600F00800CDE95B
:100BF000047069463048CDE9024500F057FA0022FA
:100C00001146132000F0B8FB132000F0A7FB0022D0
:100C10001146142000F0B0FB142042E0DFF89CE005
:100C2000F44540D1D0F800C04CF0806CC0F800C052
:100C3000D0F800C001290CF0806CCDF814C0196008
:100C400007D1016841F000710160006800F0007098
:100C50000590106840F002001060106802AB00F0D0
:100C6000020005906020CDE9000683E8B0006946E7
:100C7000134800F01BFA002211463F2000F07CFBD5
:100C80003F2000F06BFB00221146402000F074FB77
:100C9000402000F063FB00221146412000F06CFB75
:100CA000412000F05BFB07B0F0BD00000064004095
:100CB0003800002030380240000C0240006800403C
:100CC000000402407047000000B5104A016889B076
:100CD000914219D107AB6A460021FFF75EFD0098EB
:100CE000A0F5007107390FD1BDF81C0041BA0848C2
:100CF0008180BDF81E1049BA0181BDF8201049BAA3
:100D000041819DF82210017309B000BD00640040CC
:100D10004C000020704770477047000070B50446D3
:100D200090F82000012804D0606A40F4002060623E
:100D300018E0022084F820002068016821F00101F9
:100D4000016000F0ABFA05460EE000BF00F0A6FA25
:100D5000401B0A2808D9606A40F400306062052010
:100D600084F82000012070BD20684068C007EDD1E4
:100D7000606270BD7047704770477047704770473A
:100D800070472DE9F0410446876D00F087FA06466A
:100D900094F835000025022806D08020606584F88C
:100DA00034500120BDE8F0812068016821F016016F
:100DB00001602068416921F080014161206C08B91F
:100DC000A06C20B12068016821F008010160206852
:100DD000016821F0010101600CE000F05FFA801B66
:100DE000052807D920206065032084F8350084F8A1
:100DF0003450D7E720680068C007EED194F85C1043
:100E00003F208840B860012084F8350084F83450D1
:100E10000020C7E790F83510022903D080214165F2
:100E200001207047052180F835100068016821F025
:100E300001010160002070472DE9F84304464FF09E
:100E40000009CDF8009063484FF41651A56D006875
:100E5000B0FBF1F72E6894F85C10082000FA01F15D
:100E600031420FD021680A6852070BD50A6822F078
:100E700004020A6094F85C108840A860606D40F03D
:100E80000100606594F85C104FF0010808FA01F069
:100E9000304208D021684969090604D5A860606D10
:100EA00040F00200606594F85C10042088403042F5
:100EB00008D021680968890704D5A860606D40F0F2
:100EC0000400606594F85C1010208840304218D00F
:100ED00021680968090714D5A860206801684903DA
:100EE00004D50068000308D5A16C07E00168C905B6
:100EF00003D4016821F008010160216C09B120468A
:100F0000884794F85C1020208840304231D0216816
:100F10000968C9062DD5A86094F835000528206811
:100F2000016806D0490347D5006800031DD4616CF1
:100F30001CE021F0160101602068416921F0800168
:100F40004161206C08B9A06C20B12068016821F0D3
:100F50000801016094F85C103F208840A86084F884
:100F6000358084F83490216D1FE0E16B09B1204693
:100F70008847606D00282BD0606DC00714D0052015
:100F800084F835002068016821F0010101600098B3
:100F9000401C0090B84203D820680068C007F6D112
:100FA00084F8358084F83490E16C002910D001B0C9
:100FB0002046BDE8F04308470168C905D5D401685B
:100FC00021F01001016084F8358084F83490CCE77A
:100FD000BDE8F883480000202DE9F041044600F008
:100FE0005DF906465CB1022084F83500002584F8DE
:100FF00034502068016821F0010101600DE00120FA
:10100000BDE8F08100F04AF9801B052805D92020B1
:101010006065032084F83500F2E720680068C007A7
:10102000F0D12268116820480140D4E90103184337
:10103000D4E903363343184363691843A36918435B
:10104000E3691843236A18430843616A042903D1FA
:10105000D4E90B1319430843106020684069666A9D
:1010600020F0070130460E43012704280CD1A06A66
:101070000643E06A40B12046FFF764FA20B1402001
:10108000606584F83570BAE7206846612046FFF74E
:1010900045FA94F85C203F2191408160656584F8B1
:1010A00035700020ACE700003F8010F02DE9F84FCC
:1010B000DFF8BCA10022012503264FF00F090AF139
:1010C000040BAAF1040E00BF0B6805FA02F42340DA
:1010D000A34270D10F7907F00307012F01D0022F2F
:1010E00016D187684FEA420806FA08FC27EA0C077F
:1010F000D1F80CC00CFA08FC4CEA070CC0F808C088
:101100004768A7430C79C4F3001494403C434460FF
:101110000C79E443A4070AD0C4684FEA420C06FAEB
:101120000CF7BC438F6807FA0CF72743C7600C79AC
:1011300004F00304022C12D1D40800EB840CDCF878
:1011400020405707FF0E09FA07F824EA0804D1F8EF
:10115000108008FA07F848EA0408CCF820800468F0
:101160004FEA420C06FA0CF7BC430F7907F003076D
:1011700007FA0CF7274307604C6814F4403F70D01F
:101180003C4C276847F480472760246822F0030717
:1011900004F480440094384C07EB040CDCF8084855
:1011A00097074FEA177809FA08F7BC43334FB8425C
:1011B00002D1002724E054E0314FB84201D1012789
:1011C0001EE0304FB84201D1022719E02E4FB8423D
:1011D00001D1032714E02D4FB84201D104270FE0BD
:1011E0002B4FB84201D105270AE02A4FB84201D15E
:1011F000062705E0284FB84201D1072700E008275D
:1012000007FA08F72743CCF80878DAF80040574681
:10121000D1F804C09C435FEACC2C00D51C433C6051
:10122000DBF800405F46D1F804C09C435FEA8C2C99
:1012300000D51C433C60DEF800407746D1F804C07E
:101240009C435FEA8C3C00D51C433C60084F083F40
:101250003C68D1F804C09C435FEACC3C00D51C43F9
:101260003C60521C102AFFF42FAFBDE8F88F00003D
:10127000083C014044380240003001400000024078
:101280000004024000080240000C0240001002402E
:101290000014024000180240001C0240014880680F
:1012A000704700003C000020024881680278114429
:1012B000816070473C0000200B4810B5016841F484
:1012C00000710160016841F480610160016841F4CE
:1012D00080710160032000F06FF80F2000F006F825
:1012E00000F024F8002010BD003C024070B50D4D08
:1012F00004464FF47A712878B1FBF0F00A49096886
:10130000B1FBF0F000F00CFB48B9102C07D2002222
:101310002146501E00F030F800206C6070BD0120A6
:1013200070BD00003C000020480000200A4808B5BD
:10133000016841F480410160006800F48040009041
:101340000548001F016841F080510160006800F00D
:101350008050009008BD000044380240002809DB9E
:1013600000F01F02012191404009800000F1E020BF
:10137000C0F8001170470000F0B40E4B1B680C461B
:10138000C3F30223C3F10705042D00D90425191D59
:10139000072901D2002300E0DB1E012606FA05F131
:1013A000491E214099409E40761E16403143F0BCB4
:1013B00001F037B80CED00E0064900F007020868BC
:1013C0004FF6FF03184040EA0220034A104308602A
:1013D000704700000CED00E00000FA052DE9F04731
:1013E0000E46050065D0DFF81481D8F80000F7B28A
:1013F00000F00700B04207D288F80070D8F800006B
:1014000000F00700B04254D128683D4C810712D546
:10141000400703D5206840F4E0502060287800079A
:1014200003D5206840F4604020602068A96820F05F
:10143000F000084320602878C0072DD03049686844
:101440000839012812D0022813D0032811D00968C6
:10145000890700292DDA216821F003010143216069
:10146000FFF71CFF814641F2883A0EE009688903C4
:10147000EFE709688901ECE7FFF710FFA0EB09012E
:10148000514502D90320BDE8F0872068696800F063
:101490000C00B0EB810FEFD1D8F80010404601F0FE
:1014A0000701B14207D90770006800F00700B04299
:1014B00001D00120E7E72878400705D52068E968D2
:1014C00020F4E050084320602878000706D5206803
:1014D000296920F4604040EAC100206000F038F83B
:1014E0002168084AC1F30311515CC84006490860ED
:1014F00006480068FFF7FAFE0020C4E7003C0240FF
:1015000008380240B22600084800002040000020B1
:101510000448054900680968044AC1F38221515C06
:10152000C84070474800002008380240C226000822
:101530000448054900680968044AC1F34231515C16
:10154000C84070474800002008380240C226000802
:10155000154810B5006810F00C02144813D0144957
:10156000042A0FD0082A0ED10F4C241F22682368AA
:1015700002F03F025B0207D52068C0F38810A0FB91
:10158000010106E0084610BD2168C1F38811A1FBE6
:1015900000010023FEF768FE2168C1F30141491CE8
:1015A0004900B0FBF1F010BD083802400024F400FF
:1015B000001BB7002DE9F84F04006ED02078DFF84B
:1015C0004C93C007A9F104054AD009F10400016851
:1015D000C1F38101012908D00068C0F3810002280D
:1015E0000AD1D9F80000400206D52868800337D513
:1015F00060680028E1D033E06068B0F5803F10D02B
:10160000B0F5A02F286810D020F48030286028681A
:1016100020F4802028606068A8B1FFF73FFE0646EE
:101620000DE0286840F48030F4E740F48020286022
:10163000F7E700BFFFF732FE801B642873D82868E5
:101640008003F7D50CE0FFF729FE064605E000BF52
:10165000FFF724FE801B6428F0D828688003F7D4A5
:101660002078DFF8AC8280074FF0000A3ED5A7480B
:10167000001D016811F00C0F08D00068C0F3810054
:1016800002280BD1D9F80000400207D4286880074F
:1016900016D5E068012800D112E033E1E068B8B166
:1016A0000120C8F80000FFF7F9FD064605E000BF7D
:1016B000FFF7F4FD801B0228C0D828688007F7D503
:1016C0002868216920F0F80040EAC10028600DE098
:1016D000C8F800A0FFF7E2FD064604E0FFF7DEFDD4
:1016E000801B02281FD828688007F7D420780007BD
:1016F00022D5864F87486169703771B10121016039
:10170000FFF7CCFD064604E0FFF7C8FD801B02286A
:1017100009D838688007F7D50EE0C0F800A0FFF7B9
:10172000BDFD064605E082E0FFF7B8FD801B0228FC
:101730007DD838688007F7D42078400768D5DFF86F
:10174000CCB100270BF13C0BDBF80000C0000BD440
:10175000DBF8001041F08051CBF80010DBF80000FE
:10176000012700F0805000906B4E3068C00510D407
:10177000306840F480703060FFF790FD009005E025
:10178000FFF78CFD0099401A022850D83068C00538
:10179000F6D55E4EA0686C3601280FD0052830685B
:1017A00010D020F001003060306820F0040030607C
:1017B000A068B8B1FFF772FD00900FE0306840F00C
:1017C0000100F4E740F004003060F7E7FFF766FD42
:1017D0000099411A41F28830814266D8306880070A
:1017E000F4D50EE0FFF75AFD009007E0FFF756FD35
:1017F0000099411A41F28830814256D830688007FA
:10180000F4D42FB1DBF8001021F08051CBF8001098
:10181000A069C8B33D49091D0968C1F381010229C6
:101820004AD00228504607D0C8F8600000E03CE0EB
:10183000FFF734FD04463BE04746C8F86000FFF779
:101840002DFD064605E000BFFFF728FD801B02289E
:101850002BD828688001F7D4D4E907010843A16A8E
:101860002E4A490802EB0141626A41EA82110843AB
:1018700094F82C1040EA0161C9F800100120386684
:10188000FFF70CFD044606E03EE000BFFFF706FD53
:10189000001B022809D828688001F7D534E000BF72
:1018A000FFF7FCFC001B022802D90320BDE8F88FDB
:1018B00028688001F4D427E00128F7D0D9F8000087
:1018C000E26900F4800191421CD1226A00F03F01DC
:1018D000914217D147F6C071626A0140B1EB821F95
:1018E00010D1A26A4FF0FF3300F4403103EB5202F3
:1018F000B1EB024F06D194F82C1000F07060B0EB01
:10190000016F01D00120D1E70020CFE70438024069
:1019100000004742800E4742007000400000FFFF79
:1019200010B5401EB0F1807F01D3012010BD4FF0F3
:10193000E02460610F21601700F073FD0020A061BA
:1019400007202061002010BD70477047F8B501687E
:1019500004460868CA684B6910F00F0F4FF0000585
:1019600059D003F0010602F49077374365D0C107E0
:1019700005D0D10503D5216C41F001012164410757
:1019800005D5D90703D0216C41F0020121648107FC
:1019900005D5D90703D0216C41F00401216401076A
:1019A00007D502F02001314303D0216C41F008013A
:1019B0002164216C00293AD0800604D5900602D516
:1019C000204600F034FC20684069216CC0F3801090
:1019D000090700D460B3204600F002FC206840698B
:1019E000400621D52068143050E8001F21F0400146
:1019F00040E80012002AF5D1A06BA8B16C4901653E
:101A0000A06BFFF707FA002811D0A06B016D01B0A1
:101A1000BDE8F040084783060FD593060DD5204654
:101A2000BDE8F84000F003BC2046FFF78EFFF8BD8C
:101A30002046FFF78AFF2564F8BD266B2023012E80
:101A400079D1C60677D5D60675D50868486800905E
:101A50004869400640D5A16B086840680004000C46
:101A6000EAD0A28D8242E7D9E085C869B0F5807FCF
:101A70002DD020680C3050E8001F21F4807140E820
:101A80000012002AF5D12068143050E8001F21F020
:101A9000010140E80012002AF5D12068143050E816
:101AA000001F21F0400140E80012002AF5D184F81F
:101AB0003E30256320680C3050E8001F21F01001F3
:101AC00040E80012002AF5D1A06BFFF75AF9A08D6B
:101AD000E18D401A81B229E0A08DE18D401A81B2DA
:101AE000E08D0028A8D00029A6D020680C3050E84E
:101AF000002F22F4907240E80026002EF5D12068D5
:101B0000143050E8002F22F0010240E80026002E99
:101B1000F5D184F83E30256320680C3050E8002F62
:101B200022F0100240E80023002BF5D12046FFF7F9
:101B30000BFFF8BDFFE705062BD5150629D594F850
:101B40003D002128F5D1A068B0F5805F01D1206962
:101B5000B0B1206A411C2162216800784860E08CA5
:101B6000401E0004000CE084E3D12068C16821F02D
:101B70008001C1602068C16841F04001C160D8E7C0
:101B8000206A0088C0F308004860206A801C206238
:101B9000E5E74006CDD55006CBD5CA68204622F0F1
:101BA0004002CA6084F83D3000F0A3F9C1E70000AC
:101BB000D121000870B5040004D094F83D00002540
:101BC00010B106E0012070BD84F83C50204600F0C2
:101BD00023F8242084F83D002068C16821F40051D6
:101BE000C160204600F084FB2068016921F4904127
:101BF00001612068416921F02A0141612068C168C2
:101C000041F40051C1602564202084F83D0084F82F
:101C10003E00002070BD00002DE9F04F87B0054662
:101C200014216846FEF797FBA648DFF89482143823
:101C3000D5F800C0A34B022103224027002406153B
:101C40004FF0070BC44570D1D3F800C04CF0100C16
:101C5000C3F800C01B6803F010030593036843F04A
:101C600002030360036803F002030593036843F073
:101C7000010303600068884600F0010005908020A1
:101C8000CDE90008CDE902429246D9466946CDF831
:101C900010B08D48FFF70AFA7010CDE90008CDE9C1
:101CA000024A6946CDF810908848FFF7FFF9DFF83F
:101CB00024A2874950464FF00068CAF80010C0E9D6
:101CC0000184C0E90346CAF81440CAF81840CAF8AB
:101CD0001C40CAF82040B146CAF82440FFF77CF9FE
:101CE00008B1FEF75AFC7B4EC5F838A06036CAF83A
:101CF0003850C6E90274C6E90494B4617448F461CA
:101D0000346278307462C6E900083046FFF764F93F
:101D100008B1FEF742FC6E63002211462520B56330
:101D2000FFF72AFB252064E0FFE7DFF8AC81C4451C
:101D300064D1644BA1461B1FD3F800C04CF4802C27
:101D4000C3F800C01B6803F480230593036843F0C5
:101D500004030360006800F0040005904FF4406045
:101D60008DE81300CDE9032B69465C48FFF79EF927
:101D7000DFF860815A4908F1C00840464FF0006A18
:101D8000C8F80010C0E901A4C0E90346C8F814402F
:101D9000C8F81840C8F81C40C8F82040C8F82440CB
:101DA000FFF71AF908B1FEF7F8FB4E4CC5F838807A
:101DB0004B48C8F838503030A760C4E9000AC4E97D
:101DC0000396C4F81490C4F81890C4F81C90C4F892
:101DD00020902046C4F82490FFF7FEF808B1FEF7E3
:101DE000DCFB6C63002211462720A563FFF7C4FAD1
:101DF0002720FFF7B3FA07B0BDE8F08FDFF8E880DF
:101E0000C445F8D1D3F800C04CF0200CC3F800C092
:101E10001B6803F020030593036843F0400303604D
:101E2000006800F0400005904FF484408DE81300F6
:101E30000820CDE9032069462C48FFF737F9DFF881
:101E4000A490234909F16009183948464FF0206AE7
:101E5000C9F80010C0E901A4C0E90346C9F814405C
:101E6000C9F81840C9F81C40C9F82040B046C9F864
:101E70002440FFF7B1F808B1FEF78FFB194EC5F803
:101E80003890C036C9F83850C6E90274C6E90484EF
:101E9000B4610F48F461346260307462C6E9000ACC
:101EA0003046FFF799F808B1FEF777FB6E63002222
:101EB00011464720B563FFF75FFA472099E7000016
:101EC000001001404438024000040240000002407B
:101ED0004064024000020020004800400008024028
:101EE0002860024020030020001401400018024036
:101EF00070477047FEE700000F4810B50D490160BC
:101F00000321416000214FF410228160C0E90312D7
:101F10004FF400124261017641768176C1760177F5
:101F20004177FEF7ACFD002803D0BDE81040FEF776
:101F300034BB10BD00640040E40000200F4810B521
:101F40000D4901600321416000214FF4102281609E
:101F5000C0E903124FF400124261017641768176A6
:101F6000C17601774177FEF78AFD002803D0BDE8EE
:101F70001040FEF712BB10BD006800400C010020AD
:101F8000214808B5016841F480010160016801F44D
:101F900080010091016841F4001101600068002295
:101FA00000F40010009011460C20FFF7E5F90C201A
:101FB000FFF7D4F9002211460E20FFF7DDF90E20BD
:101FC000FFF7CCF9002211463920FFF7D5F9392067
:101FD000FFF7C4F9002211463A20FFF7CDF93A2065
:101FE000FFF7BCF9002211464520FFF7C5F945204F
:101FF000FFF7B4F9002211464620FFF7BDF9BDE80E
:1020000008404620FFF7AAB930380240194808B501
:10201000016841F002010160016801F002010091D4
:10202000016841F040010160016801F04001009148
:10203000016841F001010160016801F001010091B6
:10204000016841F008010160016801F00801009198
:10205000016841F004010160016801F00401009190
:10206000016841F080010160006800F0800000908C
:1020700008BD0000303802400C4810B50A49016024
:102080004FF4E1314160002181600C22C160C0E960
:1020900004128161C161FFF78DFD002803D0BDE806
:1020A0001040FEF77ABA10BD001001403401002044
:1020B0000C4810B50A4901604FF4E131416000213C
:1020C00081600C22C160C0E904128161C161FFF727
:1020D00071FD002803D0BDE81040FEF75EBA10BDC8
:1020E00000480040780100200C4810B50A49016002
:1020F0004FF4E1314160002181600C22C160C0E9F0
:1021000004128161C161FFF755FD002803D0BDE8CD
:102110001040FEF742BA10BD00140140BC0100207F
:10212000FEE7FEE770477047FFF7BEB830B593B0E3
:1021300030216846FEF70FF914210CA8FEF70BF9C1
:102140001D480025016841F080510160006800F0E1
:10215000805011901948016841F480410160006885
:10216000022400F4804011900120009000040190AE
:102170008001CDE9064006200890A820CDE9090499
:1021800004200B906846FFF715FA08B172B6FEE717
:102190000CA90F2081E831004FF4A0500F904FF4AC
:1021A0008050109005210CA8FFF718F9002801D0E5
:1021B00072B6FEE713B030BD4038024000700040F8
:1021C0000248016841F470010160704788ED00E049
:1021D00010B5806B0021C185C184FFF7B6FB10BD2F
:1021E00001680C3151E8002F22F4907241E800237D
:1021F000002BF5D10168143151E8002F22F00102C3
:1022000041E80023002BF5D1016B012909D10168B8
:102210000C3151E8002F22F0100241E80023002B7E
:10222000F5D1202180F83E1000210163704708B5E8
:1022300090F83E10222901D0022008BD82684FF498
:1022400080539A4201D1016921B1816A9A421BD01F
:102250004AB10AE00268816A5268C2F308020A8041
:10226000816A891C08E0026972B10268526802F052
:102270007F020A70816A491C8162C18D491E09046E
:10228000090CC18503D019E002685268F1E70168C2
:10229000CA6822F02002CA600168CA6822F480720B
:1022A000CA6001684A6922F001024A61202180F86F
:1022B0003E10016B012903D0FFF71AFE002008BD74
:1022C0000021016301680C3151E8002F22F0100257
:1022D00041E80023002BF5D101680A68D20602D537
:1022E0000A6849680091818DFFF72EFBE6E7000040
:1022F00070B5044600680169E26821F44051114359
:1023000001612169A068E2690843616911430843DA
:102310002168CA6849F20C639A430243CA60206884
:102320004169A26921F4407111434161314920683A
:10233000884202D03049884202D1FFF7F9F801E023
:10234000FFF7E6F8E2690023192164253226B2F589
:10235000004F626828D0A0FB0101930F9200FDF7A7
:1023600083FF0146B0FBF5F06FF01802504301EB1C
:10237000800006EB0010B0FBF5F000F0F002B1FBBE
:10238000F5F002EB0012B1FBF5F06FF018035843C3
:1023900001EB800006EB0010B0FBF5F000F00F0041
:1023A00021681044886070BDA0FB010192185B4158
:1023B000FDF75AFF0146B0FBF5F00201B1FBF5F065
:1023C0006FF01803584301EB800006EBC000B0FB30
:1023D000F5F000F0F80002EB4002B1FBF5F05843D5
:1023E00001EB800006EBC000B0FBF5F000F0070049
:1023F000D6E7000000100140001401400148FFF73B
:10240000A5BA0000340100200148FFF79FBA000080
:10241000780100200148FFF799BA0000BC010020B4
:10242000FEE70907090E002804DB00F1E02080F830
:102430000014704700F00F0000F1E02080F8141D38
:102440007047FEF739FFFFF771FEFFF7DFFDFFF77B
:1024500097FDFFF751FDFFF771FDFFF70DFEFFF749
:1024600027FEFFF741FEFDF7DBFFFEF703F800F064
:1024700043F800F001F8FCE738B59FED1B0A1B4953
:102480001B48F0EE400A00F0AFF8194D174C103D14
:10249000203CB5F90810B4F90000814208DB144A69
:1024A0009FED140A82ED000A82ED010A82ED020A14
:1024B00000EE101A00EE900A0D48B8EEC00AF8EED1
:1024C000E00A00F03DF8BDEEC00A10EE100A01B2BD
:1024D00069800B460A460020009100F0B3F8E068DE
:1024E000401CE06038BD000000401C462000002079
:1024F0005C0000200000000010B50F490F482DEDD2
:10250000028B9FED0C8AF0EE480AB0EE480A00F00C
:102510006BF809490948F0EE480AB0EE480A0C3950
:10252000443800F061F8054854388188C180BDEC1A
:10253000028B10BD000080462C000020A00000206F
:10254000D0ED0E1AC0ED0F1AC0ED050A80ED060A97
:1025500030EEC00A80ED0E0AD0ED000A20EE801A9F
:1025600080ED081AD0ED090A90ED012A42EE000A2A
:1025700030EE610AC0ED090A90ED0B2A80ED0C2ABD
:1025800080ED0B0AD0ED021A61EE801AC0ED0A1A36
:1025900090ED040AF4EEC00AF1EE10FA09DCB1EE97
:1025A000400AF4EEC00AF1EE10FA02D390ED090AE7
:1025B00001E080ED090A31EE000A30EE210A80EDDB
:1025C000070AD0ED030AB4EEE00AF1EE10FA06DCD9
:1025D000F1EE600AB4EEE00AF1EE10FA01D2C0EDBD
:1025E000070A90ED070A7047002827D0002925D058
:1025F00091ED001A80ED001A91ED011A80ED011A9B
:1026000091ED021A80ED021A80ED030A9FED0C0A8B
:10261000C0ED040A80ED0D0A80ED0C0A80ED0B0A76
:1026200080ED070A80ED0A0A80ED090A80ED080AAC
:1026300080ED100A80ED0F0A80ED0E0A7047000051
:102640000000000010B588B00A9C18B340F2FF20CB
:10265000029000200490059008200690080A8DF84A
:1026600000008DF80110100A8DF80200180A8DF88C
:1026700004008DF80530200A8DF806008DF803203F
:102680008DF8074001236A4602A90448FDF799FF27
:1026900008B010BD40F2FF10DAE70000E4000020AF
:1026A0004FF04070E1EE100A704700061016000669
:1026B00010160000000000000000010203040607DD
:1026C000080900000000010203040000EC260008D5
:1026D000000000204C000000C4010008382700085A
:1026E0004C000020540A0000E0010008E8031E002E
:1026F00000000000000000000000000000000000DA
:102700000000000000000000000000000000404049
:102710000000003F000000000000A0410000000099
:102720000000000000000000010000001000000098
:08273000000000000024F40089
:040000050800018965
:00000001FF
